:020000040800F2
:100000007021002039020008AF1D0008D11C000833
:10001000AD1D0008B1100008AB2100080000000071
:10002000000000000000000000000000A101000826
:100030004D11000800000000E5010008D91E00086D
:10004000530200085302000853020008530200083C
:10005000530200085302000853020008530200082C
:10006000530200085302000853020008530200081C
:10007000530200085302000853020008530200080C
:1000800053020008530200085302000853020008FC
:1000900053020008530200085302000853020008EC
:1000A00053020008530200085302000853020008DC
:1000B00053020008530200085302000853020008CC
:1000C00053020008530200085302000853020008BC
:1000D00053020008530200085302000853020008AC
:1000E00053020008530200085302000800F002F80F
:1000F00000F047F80AA090E8000C82448344AAF17B
:100100000107DA4501D100F03CF8AFF2090EBAE878
:100110000F0013F0010F18BFFB1A43F0010318473B
:100120005C3A00007C3A0000103A24BF78C878C1DD
:10013000FAD8520724BF30C830C144BF04680C60ED
:10014000704700000023002400250026103A28BF35
:1001500078C1FBD8520728BF30C148BF0B60704739
:10016000642900F0E380002070471FB59DE803007C
:1001700000F090FD00F096FA1FBD10B500F0FBFAFC
:1001800010BD00F05EFB1146FFF7EFFF02F02CF808
:1001900000F04EFD03B4FFF7F0FF03BC00F0ECFEEF
:1001A000224B19680868B0E8F00F80F30988BFF3A4
:1001B0006F8F4FF0000080F311884EF00D0E7047E6
:1001C0000000000006480068006880F3088862B6F6
:1001D00061B6BFF34F8FBFF36F8F00DF00BF00BF6B
:1001E00008ED00E0EFF30980BFF36F8F0F4B1A6843
:1001F00020E9F00F106008B54FF0500080F311882F
:10020000BFF34F8FBFF36F8F02F010FF4FF000006E
:1002100080F31188BDE8084019680868B0E8F00F5D
:1002200080F30988BFF36F8F704700BF2000002064
:10023000EFF30580704700000948804709480047F0
:10024000FEE7FEE7FEE7FEE7FEE7FEE7FEE7FEE786
:10025000FEE7FEE704480549054A064B70470000E3
:100260004F1F0008ED000008701B002070210020C7
:10027000701D0020701D00200FB4044910B503AAA2
:10028000029800F0A5F910BC5DF814FB641A002078
:100290000FB41CB50C0007AA009001D02044401EEA
:1002A000074B7B4469460190069800F070F9002CDA
:1002B00003D06946002000F07DF91CBC5DF814FBFA
:1002C000190300002DE9F0410E460446002020628B
:1002D0002046E168884730B3252805D0D4E90121BC
:1002E0009047206A401CF2E7E168204600278847D3
:1002F000050018D0A5F14100192802D820354FF487
:1003000000673246294620462760FFF729FF40B1A3
:10031000012804D0F61D26F007060836D8E7361D5A
:10032000D6E72846DAE7206ABDE8F0812DE9F041FA
:100330000646002410687529314616A510D0AFF383
:100340000080002802DA404213A507E031688A07DE
:1003500001D512A502E0490704D511A5012401E049
:10036000AFF3008000210A2206F1240709E0B0FB68
:10037000F2FCB0FBF2F302FB1C003030785418465C
:10038000491C0028F3D123462A463046BDE8F041F7
:1003900000F09EB8000000002D0000002B000000BF
:1003A0002000000010B5431C02E010F8011B71B1E1
:1003B0008107FAD14FF0013202C88C1A8C4314EA3B
:1003C000C211F9D0C01A0A0603D0C01E10BDC01A4F
:1003D00010BD0A0401D0801E10BD0902FCD0401ED1
:1003E00010BD032A40F2308010F0030C00F015809D
:1003F00011F8013BBCF1020F624498BF11F801CB28
:1004000000F8013B38BF11F8013BA2F1040298BF8C
:1004100000F801CB38BF00F8013B11F0030300F0F6
:10042000E980083AC0F0088051F8043B083A51F8D6
:1004300004CBA0E80810F5E7121D5CBF51F8043B9F
:1004400040F8043BAFF30080D20724BF11F8013B12
:1004500011F801CB48BF11F8012B24BF00F8013B74
:1004600000F801CB48BF00F8012B704702F0FF03F2
:1004700043EA032242EA024200F0F0B84FF00002E1
:1004800000B5134694469646203922BFA0E80C508A
:10049000A0E80C50B1F12001BFF4F7AF090728BF65
:1004A000A0E80C5048BF0CC05DF804EB890028BFE1
:1004B00040F8042B08BF704748BF20F8022B11F00A
:1004C000804F18BF00F8012B704770477047704786
:1004D0002DE9F0470D4699469246044600F124085E
:1004E0000168880604D5E06921F01001216000E070
:1004F0000120A84201DD471B00E00027A1697A190D
:1005000002EB0900081AA0612078C00602D4204638
:10051000AFF30080002608E0D4E901211AF80600B4
:100520009047206A401C761C20624E45F4DB207800
:10053000C0060AD52046AFF3008006E0D4E90121C9
:1005400030209047206A401C2062381EA7F1010726
:10055000F4DC07E0D4E9012118F805009047206A8F
:10056000401C2062281EA5F10105F3DC2046AFF3F4
:1005700000802078000602D50220BDE8F087012027
:10058000FBE7000001694A1C02610878704700B56A
:100590008FB0CDE901310021059105497944CDE9BC
:1005A000031011466846FFF78DFE0FB000BD000036
:1005B000E5FFFFFF0A6802F8010B0A607047D1E906
:1005C00000239A4202D2531C0B6010707047000047
:1005D000074B70B50D467B44FFF7D9FF044628460C
:1005E00000F05CF810B14FF0FF3070BD204670BDD8
:1005F000F31B000010B5203AC0F00B80B1E8185092
:10060000203AA0E81850B1E81850A0E81850BFF4FC
:10061000F5AF5FEA027C24BFB1E81850A0E818509B
:1006200044BF18C918C0BDE810405FEA827C24BFEF
:1006300051F8043B40F8043B08BF7047D20728BF7D
:1006400031F8023B48BF11F8012B28BF20F8023BCC
:1006500048BF00F8012B70474FF000020429C0F09A
:10066000128010F0030C3FF40BAFCCF1040CBCF182
:10067000020F18BF00F8012BA8BF20F8022BA1EB36
:100680000C01FFF7FDBE5FEAC17C24BF00F8012B1F
:1006900000F8012B48BF00F8012B7047007B00F0E9
:1006A0008000704710B542485421FFF7E7FE4148EB
:1006B0005421FFF7E3FE40485421FFF7DFFE3F4996
:1006C0003B483C4A3F4B08603D490A603A49196043
:1006D000531C0365481C1065012008653B48344ADB
:1006E00039A1784400F008FA20B9384878440A382B
:1006F00000F0A7FA37482F4A35A1784400F0FCF9FA
:1007000020B9344878440A3800F09BFA32482A4A23
:100710002FA1784400F0F0F920B92F4878440A3826
:1007200000F08FFA40232248DC000021224600F02E
:10073000BFF920B125487844543800F082FA1D48AA
:1007400022464023002100F0B3F920B1214878442B
:10075000543800F076FA184822461023002100F0A1
:10076000A7F9002806D01C487844BDE81040563848
:1007700000F067BA10BD104870B5006D20F001049C
:100780000B4800F02FFA0B4800F02CFA0A4800F052
:1007900029FA09E0206D20F00105204600F022FA38
:1007A000204600F073F82C46002CF3D170BD0000F9
:1007B000101A0020641A0020B81A0020A00000209F
:1007C000A4000020A80000207200000020340000D7
:1007D000770000000C340000F83300000EB5CDE9BE
:1007E0000001FFF7DFFD029069460120ABBE0EBDA0
:1007F00008B5694600900220ABBE08BD1FB58DE864
:10080000070069460520ABBE04B010BD1FB58DE8DA
:100810000F0069460620ABBEF6E708B569460090B2
:100820000920ABBE08BD1CB5CDE9000169460A2010
:10083000ABBE1CBD704708B5694600900C20ABBE2E
:1008400008BD754600F004FAAE46050069465346F9
:1008500020F00700854618B020B5FFF7FBFCBDE887
:1008600020404FF000064FF000074FF000084FF017
:10087000000B21F00701AC46ACE8C009ACE8C009A8
:10088000ACE8C009ACE8C0098D46704770B50446B5
:10089000051F00F0E3F90068002C14BF446870BD28
:1008A000002C18BFAC423CBF20466468F8D30168F6
:1008B0000A18AA4218BF456003D12A6805461144A8
:1008C000016028684119A1421CBF6C6070BD61685D
:1008D000696021680844286070BD2DE9F04705462D
:1008E0000C46C86820F4201040F48000C8608006E0
:1008F00002D5084600F0FFFAE06841F282014FF0AD
:10090000FF390140022903D0204600F09DFAB5E0EE
:1009100000F42041B1F5004F0FD1C00306D5616846
:10092000E06A884200D80846606006E02069E0621C
:1009300060606069FFF77FFFA061A0680022EEB2EF
:1009400000280DDAE1688B050AD4C043A06041F4A9
:1009500090302260E0606068411C61600670A5E034
:10096000E0689046226040F40050E060206968BB77
:100970006069FFF752FF012704F12405A0B1A089A7
:1009800010F4407F08D0E06900F0B3F9206118B19D
:10099000E06840F4006016E0E7612561E06820F45B
:1009A000407040F480600EE0E06900F0A2F9002899
:1009B0002061F1D0E06840F4006010F4407FE06016
:1009C00002D140F48070E06020696060E0682569D1
:1009D0006FF0010AC1051FD56168E06A884200D83E
:1009E0000846411B04D02246284600F037FAF0BBE7
:1009F000E068010203D5E562C4E9015854E0691CCE
:100A0000E1626160E16940F48030491EC4E902108E
:100A100030462E70BDE8F087010202D500F4803226
:100A20000AE06068411C61600670E0680A2E40F4CC
:100A30008030E06006D00022E16A6068814203D91C
:100A40000B4602E00122F7E70346A7895B1B7F05FF
:100A500003D4E7699F4200DDE2B1814200D801463C
:100A6000E5620F1AC4E90158002B09DD00E005E03A
:100A700022461946284600F0F1F908B14846C9E770
:100A800047B1A069E5626560C01BA061E06840F005
:100A90001000E060E068000208D56168A069E562C6
:100AA000491B08446560A0615046B3E73046B1E792
:100AB00070B5C468A50713D0650211D4B2F5807F64
:100AC00009D0B2F5007F06D0B2F5806F08D10123BE
:100AD00000F1240106E05D1E6FF07F46B54201D3B0
:100AE000012070BD0161C361416024F47061114354
:100AF000C160002070BD00002DE9F0410C460746A2
:100B00001646104600F06EF82078611C61280AD065
:100B1000722802D077283CD102E00125002405E0AC
:100B20000225042402E0082448F2020511F8010B12
:100B30002B2806D0622809D011F8010C74280AD09D
:100B40000BE045F0030544F00204EFE745F004052F
:100B500044F00104EAE744F0100438462146FFF768
:100B60003DFE411C15D00021316171604FF40071D0
:100B7000F560F1617061200704D530460222002142
:100B800000F0E6F8306D40F0010030653046BDE819
:100B9000F0810020FBE72DE9F0410D460646104CA0
:100BA000206DC10704D0410804D020F00104F7E70C
:100BB00022460EE0542000F09CF807000ED0206D75
:100BC00047F001010843542120653846FFF756FCE1
:100BD0003A4629463046BDE8F0418DE70020D6E789
:100BE000101A00202DE9F04704464FF000094FF09D
:100BF000FF37C568D4E90486A80707D0204600F06F
:100C000057F93046FFF7F4FD002802DA3846BDE810
:100C1000F087280502D54046FFF738FE4C212046D4
:100C2000FFF72CFC206D20F0010020654846EEE720
:100C300010B50446AFF300802046BDE81040FFF732
:100C4000A9BA10B500F07EF9BDE8104000F074B903
:100C5000004870470C1B0020704700000048704798
:100C6000141B0020704770477047704738B5044622
:100C70000A4600206946AFF30080002808BF38BD4F
:100C800002460099204600F084F9012038BD012079
:100C900000F0D3B9F8B5AFF30080054600200C464C
:100CA000102000BF0646A819A0420DD93246694659
:100CB0000020AFF30080070008BF00F0BEF90098E5
:100CC000A04218BF0546C419FFF7C8FF05600746D4
:100CD000F01D20F007004619284600F053F9B442F1
:100CE00008BFF8BDA21B31463868BDE8F84000F0E7
:100CF00050B970B50646FFF7B1FF056806F10B0065
:100D000020F00704B4429CBF002070BD2B466A68E7
:100D1000BAB11068A04210D304F1080188423CBF68
:100D20005068586007D35168101941601168091B59
:100D3000016058601460101D70BD13465268002A8F
:100D4000E7D121462846FFF791FF0028DED170BD8C
:100D50002DE9F041044616460D464769007B8007A1
:100D60002ED03846FFF759FD50BB3EB3012E02D0BE
:100D7000022E25D104E0204600F025F905441DE0AF
:100D80003846FFF758FDE168002841F01001E160A6
:100D900005DA204600F058F80120BDE8F081C903CB
:100DA0000BD56268E16A914200D81146A2691144EC
:100DB0002269891A814200DD08460544002D01DAC6
:100DC0000220EAE7E16A6068E268814206D29103A4
:100DD000E06203D522F4003141F01002A669002739
:100DE000AE4213DCE16A814201D90B4600E00346C2
:100DF00003EB060C2369ACEB030CAC4506DD81422A
:100E000001D98C4600E084469C4505D1A760276047
:100E100042F02000A5620DE0AD1BE669AE1B8142E9
:100E2000A66000D90846C01A281A206058196060C8
:100E300022F0200003490840E060002084F8487058
:100E4000ABE70000BFCFD7FFC16821F4001141F02C
:100E50008001C16000218160016070472DE9F04789
:100E6000814614460E464FF0FF383248D568576920
:100E7000054209D03846A169FFF7D5FC002811DBEF
:100E80002C48C0430540E5602B463246494638466B
:100E9000FFF7B4FCA16920F00042B21A1144002807
:100EA000A16103D02046FFF7CFFF4046BDE8F087A1
:100EB00070B504460569C06A6168884200D8084672
:100EC000E16821F42011E160C90312D5A84208D0DD
:100ED0002246411B2846FFF7C1FF10B14FF0FF30FB
:100EE00070BD0020E562C4E90150E06820F4803064
:100EF000E060002070BD10B50446C06820F02000FE
:100F0000E060A16AA06988420DD02046FFF7D0FFBB
:100F1000E06820F4405040F01000E060A06AA0615A
:100F20002069E062606044F24001E0688843E0606C
:100F300010BD000010000200002801D000F01CB815
:100F40007047000010B5014602A000F05DF80120D6
:100F500010BD000053494752545245443A2052654F
:100F60006469726563743A2063616E2774206F70E0
:100F7000656E3A200000000001491820ABBEFEE774
:100F80002600020000210160C0E901107047102016
:100F90007047034640688C46002818BF88423CBF13
:100FA00003464068F8D318681844884207D00CF10B
:100FB000030020F00700001D411A521A0146081DC7
:100FC0000A60FFF763BC10B50146C268900703D002
:100FD000900607D5886A0AE000F03EF8012101601A
:100FE000881E10BD8B69486818440B69C01A91F8B7
:100FF00048301BB191F84910401A10BD1103FCD5BF
:101000000028FADD401E10BD70B505460C460A20CA
:1010100000E06D1C00F018F835B128780028F8D1F0
:1010200002E0641C00F010F814B120780028F8D118
:10103000BDE870400A2000F007B810B500F010F8C5
:10104000BDE81040FFF778BF08B569468DF800008D
:101050000320ABBE08BD0000004870470C1B0020F9
:1010600010B5012805D0002103A0FFF7CDFF012016
:1010700010BD09A1F8E7000053494752544D454DB2
:101080003A204F7574206F662068656170206D6529
:101090006D6F7279000000003A2048656170206D24
:1010A000656D6F727920636F72727570746564001C
:1010B000FEE700002DE9F0410025134E2C464FF0CD
:1010C00001084FF480473946304600F043F90028C4
:1010D000F9D01E2000F03CF83946304600F03AF9CD
:1010E000012805D1C4F1070108FA01F02843C5B26F
:1010F0003946304600F02EF90128F9D0641C082C3E
:10110000E1DB2846BDE8F081000C01407FB50E4DC3
:101110004FF4804400222146284600F020F9122096
:1011200000F016F801222146284600F018F90120A7
:1011300000F00EF8002001900290039069460094A0
:10114000284600F017F87FBD000C014070470000F2
:1011500070B5044600F008F90546601C02D004484A
:101160000078044400F000F9401BA042FAD370BD9F
:10117000100000202DE9F84FDFF8B8910024A9F104
:10118000040B23460F2709F1040AABF1040EC9E052
:101190000125A5402A40AA427DD1674ED1F804C05E
:1011A000ACEB0608B44532D014DCBCF1030F3AD0E6
:1011B00009DCBCF1000F2AD0BCF1010F1CD0BCF13E
:1011C000020F31D11DE0BCF1110F17D0BCF1120F8D
:1011D0002AD119E0B8F5881F19D006DCB8F5803F90
:1011E00015D0B8F5801F1FD111E0B8F5001F0ED043
:1011F000B8F5041F18D10AE0CB6815E0CB681B1DB9
:1012000012E0CB6808330FE0CB680C330CE08B683E
:101210002BB1012B4FF0080303D0456104E00423F8
:1012200002E0056100E00023FF2A01D8064601E044
:1012300000F104064FEA840501D9A5F12005D6F88E
:10124000008007FA05FC28EA0C0803FA05F548EACD
:101250000508C6F800804D68ED0062D5374DAE69CF
:1012600046F00106AE61AD6924F0030605F0010504
:101270000095334D06EB050CDCF80850A607360F39
:1012800007FA06F825EA0805DFF8B880404503D1DB
:101290004FF0000817E044E0DFF8AC80404502D191
:1012A0004FF001080FE0DFF8A480404502D14FF075
:1012B000020808E0DFF89880404502D14FF00308AB
:1012C00001E04FF0040808FA06F848EA0508CCF8EF
:1012D00008804D68D9F80060ED024D4601D51643EF
:1012E00000E096432E604D68DAF80060AD02554686
:1012F00001D5164300E096432E604D68DBF8006090
:10130000AD035D4601D5164300E096432E604D685F
:10131000DEF80060ED03754601D5164300E0964304
:101320002E60641C0D682A46E5407FF431AFBDE8AD
:10133000F88F000008040140000011100010024066
:101340000000014000080140000C01400010014075
:10135000001401408068084000D0012070470AB1A5
:10136000016170470904FBE701488068704700008D
:1013700010000020024881680278114481607047A3
:1013800010000020074810B5016841F0100101600D
:10139000032000F06DF80F2000F006F800F024F8AC
:1013A000002010BD0020024070B50D4D04464FF4E2
:1013B0007A712878B1FBF0F00A490968B1FBF0F0C6
:1013C00000F0D4FA48B9102C07D200222146501E52
:1013D00000F02EF800206C6070BD012070BD000090
:1013E000100000201C0000200F4808B5816941F062
:1013F00001018161816901F001010091C16941F040
:101400008051C161C069002200F0805000900F211E
:10141000901E00F00DF80548416821F0E06141F0B0
:101420000071416008BD0000001002400000014052
:10143000F0B40E4B1B680C46C3F30223C3F107053F
:10144000042D00D90425191D072901D2002300E02D
:10145000DB1E012606FA05F1491E214099409E40F7
:10146000761E16403143F0BC00F0A0BE0CED00E04B
:10147000064900F0070208684FF6FF03184040EAEB
:101480000220034A10430860704700000CED00E0A2
:101490000000FA052DE9F0470F46050061D0434EE4
:1014A000306800F00700B84209D2306820F0070029
:1014B00038433060306800F00700B84251D12868E6
:1014C0003B4C810712D5400703D5606840F4E060CB
:1014D00060602878000703D5606840F46050606061
:1014E0006068A96820F0F000084360602878C007B1
:1014F00028D06868012810D02168022810D08907F8
:1015000000292EDA616821F0030101436160FFF7D1
:101510002BFF804641F288390DE021688903EFE70F
:101520008901EDE7FFF720FFA0EB0801494502D94B
:101530000320BDE8F0876068696800F00C00B0EB3C
:10154000810FEFD1306800F00700B8420BD9306846
:1015500020F0070038433060306800F00700B842E0
:1015600001D00120E5E72878400705D56068E968E3
:1015700020F4E060084360602878000706D56068C2
:10158000296920F4605040EAC100606000F038F83A
:101590006168084AC1F30311515CC84006490860FC
:1015A00006480068FFF700FF0020C2E70020024065
:1015B00000100240EE3A00081C0000201400002039
:1015C0000448054900684968044AC1F30221515C96
:1015D000C84070471C00002000100240FE3A00087E
:1015E0000448054900684968044AC1F3C221515CB6
:1015F000C84070471C00002000100240FE3A00085E
:101600000E4A51680E4801F00C03042B11D0082B30
:101610000FD10C48C1F38343C903C05C0AD551689C
:10162000084AC1F34041921E515C054A5043B0FB49
:10163000F1F0704704494843704700000010024031
:1016400000127A00DE3A000800093D002DE9F84F4B
:10165000040070D02078C04DC00749D06868C0F33E
:101660008100012807D06868C0F38100022809D1F1
:101670006868C00306D52868800339D560680028EB
:10168000E7D035E06068B0F5803F0BD010B1B0F521
:10169000A02F11D0286820F480302860286820F41A
:1016A000802002E0286840F480302860606890B1B3
:1016B000FFF75AFE06460AE0286840F480202860BA
:1016C000F0E700BFFFF750FE801B642873D828683E
:1016D0008003F7D50CE0FFF747FE064605E000BFA4
:1016E000FFF742FE801B6428F0D828688003F7D4F7
:1016F00020789A4E80074FF001094FF0000839D545
:10170000686810F00C0F07D06868C0F381000228E9
:1017100009D16868C00306D42868800714D52069F9
:10172000012808D110E02069B0B1C6F80090FFF799
:101730001BFE074605E00AE1FFF716FEC01B022864
:10174000C4D828688007F7D52868616920F0F800B8
:1017500040EAC10028600DE0C6F80080FFF704FEF3
:10176000074604E0FFF700FEC01B022823D82868C4
:101770008007F7D4207800072CD57948A169D9B122
:10178000C0F80090FFF7F0FD074604E0FFF7ECFD1E
:10179000C01B02280FD8686A8007F7D571484FF43C
:1017A000FA510068B0FBF1F0009000BF0098411EB4
:1017B0000091FAD20EE080E0C0F80080FFF7D4FD7F
:1017C000074604E0FFF7D0FDC01B022875D8686A01
:1017D0008007F7D42078400760D5E8690027C0006B
:1017E00008D4E86940F08050E861E869012700F01A
:1017F000805000905C480168C90513D40168834695
:1018000041F480710160FFF7AFFD824606E000BF42
:10181000FFF7AAFDA0EB0A0064284ED8DBF8000011
:10182000C005F5D5E06801280AD008B1052813D015
:10183000286A20F001002862286A20F0040002E0F3
:10184000286A40F001002862E06841F2883B98B1C4
:10185000FFF78AFD82460BE0286A40F00400286208
:10186000EEE700BFFFF780FDA0EB0A0159455AD80B
:10187000286A8007F6D50CE0FFF776FD824605E082
:10188000FFF772FDA0EB0A0159454CD8286A800782
:10189000F6D41FB1E86920F08050E861E06988B3B0
:1018A0006968C1F38101022944D00228C6F860802A
:1018B00004D0FFF759FD044638E034E0FFF754FD4B
:1018C000074604E0FFF750FDC01B02282BD828680C
:1018D0008001F7D4206AB0F5803F05D16868A1681F
:1018E00020F4003008436860D4E9080108436968BF
:1018F00021F4741108436860C6F86090FFF734FD66
:10190000044606E025E000BFFFF72EFD001B02287D
:1019100009D828688001F7D51BE000BFFFF724FD38
:10192000001B022802D90320BDE8F88F2868800137
:10193000F4D40EE00128F7D06868226A00F4803100
:10194000914204D1616A00F47010884201D00120F4
:10195000EAE70020E8E700000010024000004242F1
:10196000800442421C0000200070004010B5401E60
:10197000B0F1807F01D3012010BD4FF0E024606101
:101980000F21601700F012FC0020A06107202061E9
:10199000002010BD70B590F83C20012A26D001240B
:1019A00080F83C40022280F83D2003685A689D6818
:1019B00022F070060A6832435A600D4B02689A4260
:1019C00008D0B2F1804F05D00A4B9A4202D00A4BA0
:1019D0009A4204D1496825F080031943916080F848
:1019E0003D40002180F83C10084670BD022070BDCB
:1019F000002C0140000400400008004010B5040025
:101A000003D094F83D0010B107E0012010BD002084
:101A100084F83C00204600F01FF8022084F83D00C6
:101A2000211D206800F094FA012084F8460084F813
:101A30003E0084F83F0084F8400084F8410084F8B8
:101A4000420084F8430084F8440084F8450084F898
:101A50003D00002010BD000008B50068064988421E
:101A600008D10648C16941F00401C161C06900F0B4
:101A70000400009008BD0000000800400010024073
:101A800070B5044690F83C000025012817D00126C7
:101A900084F83C60022084F83D002068826822F0CF
:101AA000770222F47F4282600868502838D00DDC2B
:101AB00020284FD005DC90B3102811D14AE0022035
:101AC00070BD302846D040280AD13BE060282FD096
:101AD00070280DD0B0F5805F03D0B0F5005F12D054
:101AE000012584F83D60002084F83C00284670BD44
:101AF000CB68D1E90121206800F066FA206881688E
:101B000041F0770109E0CB68D1E90121206800F0BC
:101B10005BFA2068816841F480418160E1E719E067
:101B2000CA684968206800F061FA5021206806E020
:101B3000CA684968206800F06AFA6021206800F0ED
:101B40004DFACEE7CA684968206800F04FFA402194
:101B50002068F4E7226801461046F0E770B50400FB
:101B600004D094F84100002510B106E0012070BDBA
:101B700084F84050204600F023F8242084F84100E7
:101B80002068C16821F40051C160204600F078FA55
:101B90002068016921F4904101612068416921F0C8
:101BA0002A0141612068C16841F40051C160656447
:101BB000202084F8410084F842006563002070BD55
:101BC00030B585B000240094019402940394006819
:101BD0001449884223D11448C16941F40031C161DC
:101BE000C16901F400310491816941F0040181610E
:101BF00080690E4D00F00400049004200090022043
:101C000001900320039069462846FFF7B3FA0820A5
:101C1000CDE90004694628460294FFF7ABFA05B007
:101C200030BD0000004400400010024000080140A8
:101C30002DE9F843044690F84100984616460D46B3
:101C4000202802D00220BDE8F88385B17EB10020B3
:101C50006064212084F84100FFF786FBA68481465A
:101C6000E684A0682027B0F5805F02D003E0012061
:101C7000E9E7206910B12E4600250EE000260CE0B1
:101C80008021204600F058FAA8B9C6B116F8010B19
:101C900021684860E08C401EE084E08C4B464FF0A9
:101CA0000002CDF800800028EAD14FF04001204624
:101CB00000F042FA40B184F841700320C3E735F8E0
:101CC000020BC0F30800E3E784F841700020BAE794
:101CD000FEE7000070B586B0002418480094019417
:101CE00002940394816941F020018161816901F0CE
:101CF00020010491816941F004018161816901F051
:101D000004010491816941F00801816180690C4EF0
:101D100000F008004FF48045049000222946304628
:101D2000FFF71DFB01200095CDE90104022003907F
:101D300069463046FFF71EFA06B070BD001002403B
:101D4000000C014010B586B000241748009401949F
:101D50000294039404941349059401604721C0E957
:101D600001144FF6FF71C0E903148461FFF746FECA
:101D700008B172B6FEE74FF48050009069460A48F9
:101D8000FFF77EFE08B172B6FEE7049404A9064888
:101D90000594FFF7FFFD002801D072B6FEE706B0FC
:101DA00010BD000000080040AC000020FEE7FEE788
:101DB0002DE9FC41FFF7AAF9FFF77CF90546FFF78B
:101DC00079F98046FFF776F90446FFF773F906467E
:101DD000FFF770F907462346424629460A48CDE9EF
:101DE0000067FEF749FA05EB080020443044B8428A
:101DF00004D1064845700470BDE8FC81BDE8FC4193
:101E000003A0FEF739BA0000143B000800000020D0
:101E1000436865636B73756D204572726F720D0A4E
:101E2000000000004FF4FA64FFF7C2FF204600F004
:101E30001DFAF9E78EB0194C4FF0FF354FF47A7662
:101E400060780090237816A2322101A8FEF720FACC
:101E500001A8FEF7A7FA82B22B4601A91848FFF79E
:101E6000E7FE304600F002FA16A0FEF79BFA82B2B7
:101E70002B4614A11248FFF7DBFE2B46012207492F
:101E80000F48FFF7D5FE13A0FEF78CFA82B22B465F
:101E900010A10B48FFF7CCFED2E7000000000020A5
:101EA00054656D703A202564B0432C2048756D69E7
:101EB000646974793A20256425250D0A0000000024
:101EC000F400002054656D70657261747572653A36
:101ED000200000000D0A000010B5FFF74BFA01F0DA
:101EE00017FC012803D0BDE8104001F025B910BD52
:101EF00030B58FB028216846FEF7C0FA14210AA831
:101F0000FEF7BCFA01210804CDE900100024029478
:101F100002250491CDE907504FF4E010099068467E
:101F2000FFF794FB08B172B6FEE70F20CDE90A0572
:101F30004FF48060CDE90C4002210AA80E94FFF70F
:101F4000A9FA002801D072B6FEE70FB030BD704785
:101F5000F0B50268194B1A4C1A4D4FF08047984261
:101F600005D0B84203D0A04201D0A84203D122F04C
:101F700070064A683243984205D0B84203D0A04266
:101F800001D0A84203D122F44074CA6822434C69AC
:101F900022F08002224302608A68C2620A6882627A
:101FA000984201D109690163012141610169C907B1
:101FB00003D0016921F001010161F0BD002C014055
:101FC000000400400008004010B5846842EA032283
:101FD00024F47F440A432243826010BD826822F0C9
:101FE00070020A4342F007018160704710B5036A2E
:101FF000046A24F001040462846924F0F00444EAD1
:10200000021423F00A020A438461026210BD10B573
:10201000036A046A24F010040462846923F0A003B4
:1020200024F4704444EA023243EA011182610162FD
:1020300010BD01680C3151E8002F22F4907241E884
:102040000023002BF5D10168143151E8002F22F054
:10205000010241E80023002BF5D1016B012909D1D0
:1020600001680C3151E8002F22F0100241E80023F2
:10207000002BF5D1202180F8421000210163704728
:1020800070B5044600680169E26821F440511143CB
:1020900001612169A0680843616908432168CA6831
:1020A00041F20C639A430243CA6020684169A26905
:1020B00021F44071114341611E492068884202D1D8
:1020C000FFF78EFA01E0FFF77BFA00EBC00101EBAE
:1020D0000012606864218000B2FBF0F3B3FBF1F3FF
:1020E0006FF018067343B2FBF0F5B2FBF0F605EBA8
:1020F0008305322303EB0515B5FBF1F5B6FBF1F6CD
:1021000005F0F00505EB0615B2FBF0F6B2FBF0F0BA
:10211000B0FBF1F06FF01802504306EB800003EBC8
:102120000010B0FBF1F0216800F00F002844886037
:1021300070BD0000003801402DE9F843984617466D
:102140000D460446089E24E0701C22D0FFF70CF9CF
:10215000A0EB0800B0421AD8CEB12068C168490788
:1021600017D5802D15D0402D13D00168C94309071C
:102170000FD401680025406800902046FFF759FF02
:102180000820606484F840500120BDE8F8830320F3
:10219000FBE72068006835EA000004D00020B84260
:1021A000D2D00020F1E70120F9E7FEE70907090E88
:1021B000002804DB00F1E02080F80014704700F0F4
:1021C0000F0000F1E02080F8141D70478A68002A93
:1021D00001DCFEF782BB521E8A604A68C0B2531C03
:1021E0004B60107070470000FFF7CCF8FFF780FEDF
:1021F000FFF770FDFFF7A6FD174816490C22016096
:102200004FF4E131416000218160C160C0E90412F6
:102210008161C161FFF7A2FC08B172B6FEE700F070
:1022200033F80E4A0221102000F05CF80C4C0B4AE7
:102230000021E060483A0B4800F080F8074A6060EF
:10224000243A0021084800F079F8A06000F02EF848
:10225000FEE7000000440040F4000020C43A0008FB
:1022600000000020251E0008351E000810B5EFF301
:10227000058111B16FF0050403E0002408B100F0FE
:1022800021FE204610BD0000EFF3058010B16FF075
:10229000050070470448016811B14FF0FF307047E6
:1022A00001210160002070477000002010B5EFF39D
:1022B000058010B16FF0050010BD084801680129C4
:1022C00002D04FF0FF3010BD054A002182F8141DE6
:1022D0000221016000F05EFE002010BD70000020B1
:1022E0000BE000E0F8B514464FF00005EFF305826F
:1022F00012BB08B301B3A4B1D4E9023263B1502ACE
:102300001AD32269C2B1676900FB01F6B74213D341
:10231000009500F048FF07E072B9226962B962696E
:1023200052B9002200F01EFF050005D00CB1216853
:1023300000E0002100F090FD2846F8BD2DE9FF41A6
:102340004FEA01034FF00005EFF30581039549BB08
:1023500040B38027182100244AB3166806B13446DA
:1023600096691EB13146761E382E02D21679F607CE
:1023700003D0002004B0BDE8F081566906B1B7086B
:10238000D2F808C0BCF1000F0DD0D5685C2D18D371
:1023900012693AB136B18DE806103A46214601F08D
:1023A0008CF903900DE0D6685EB912694AB903AAA8
:1023B000CDE90012BAB2214601F052F9012800D04D
:1023C00003950398D6E700002DE9F041134C0F4622
:1023D0000546E6682068001D00F040FC681C07D137
:1023E00037B12168BDE8F0410D48091D00F086BCF9
:1023F00020683544B5424560216805D2A06BBDE830
:10240000F041091D00F062BC606B091D00F05EFC2C
:10241000A06A854200D2A562BDE8F08120000020BC
:102420002C0600202DE9F041054600F073FC2D4CF0
:10243000A068401CA06020682B4F10B1606930B3C9
:102440002BE02560A068012827D1002606EB860036
:1024500007EB800000F02CFC761C382EF6D32348C6
:1024600000F026FC2148143000F022FC1F482830E0
:1024700000F01EFC1D483C3000F01AFC1B48503098
:1024800000F016FC194860631430A06305E0206872
:10249000E96AC06A884200D82560606A401C6062B0
:1024A0006864E86A2169884200D9206100EB8000F5
:1024B00007EB8000291D00F021FC00F04BFC606957
:1024C00000280CD02068E96AC06A884207D208490F
:1024D0004FF080500860BFF34F8FBFF36F8FBDE8A0
:1024E000F0810000200000207C010020DC0500209D
:1024F00004ED00E038B500F00DFC104C2068C8B9C0
:102500000F4800F0D5FB0E48143000F0D1FB0C480A
:10251000E060143020610A4B0020F03B009003F192
:10252000500210210A2000F03EFE206010B105A1EB
:1025300000F092FCBDE8384000F00CBC5C000020CC
:1025400030070020546D72510000000030B4026C5E
:102550000B46002A0BD0C1681144C1608468A142B7
:1025600001D30168C16030BC1846FDF73ABF30BCEA
:1025700070472DE9F041856B174604460026026C32
:1025800082B1C7B1E068FDF72CFFE168206C091A41
:10259000E1602268914202D2A168081AE060022F2D
:1025A00016D017E02068A8B9A06801F029F90646FE
:1025B0000020A0600EE06068FDF713FF216C6068EA
:1025C00008446060A168884204D32068606001E02C
:1025D00005B16D1E6D1CA5633046BDE8F08110B5D8
:1025E000044690F8590058B101280CD002280FD0A9
:1025F000502080F31188BFF34F8FBFF36F8FFEE73A
:10260000206B00F0BBFB2046BDE8104000F0B6BBDD
:1026100010BD000010484FF44061420706D0C01DB5
:102620000D4920F00700411AC1F540610B4A002313
:102630000144C2E900030839183A21F0070111608A
:102640004B600B600B1AC0E9001393604FF0004021
:102650005360506170470000100E00208C00002075
:10266000144E154CA6F29C474FF08058DFF84C9062
:1026700012E000BF00F04EFBF068C568281D00F0B6
:10268000EDFAA068401EA0606068401E606000F027
:1026900061FB2846FFF7A3FF60680028EAD138688D
:1026A0000128F9D9C9F80080BFF34F8FBFF36F8FAE
:1026B000F2E70000180600202000002004ED00E0F2
:1026C00070B51D46049C51B1C4F80020C4E90F0147
:1026D0000121204600F09AFD84F84C5070BD246022
:1026E000F4E700002DE9F05F8846DDE90B9415461C
:1026F000834691009A460A9EA522206BFDF7B6FEFE
:102700006FF00301206B01EB8501084420F00707FF
:10271000780707D0502080F31188BFF34F8FBFF3A5
:102720006F8FFEE70025B8F1000F0FD05FF00000BB
:10273000221818F8001082F8341018F8001011B19F
:10274000401C1028F4D384F8435001E084F834503E
:10275000382E00D33726E662C4E91365201D00F049
:10276000B2FA04F1180000F0AEFA2461C6F13800A4
:102770006462A061656584F85850524659463846EF
:1027800000F05AFA2060B9F1000F01D0C9F80040FA
:10279000BDE8F09F30B5114900E011460A68824259
:1027A000FBD34B685C18844203D1406818444860EE
:1027B000084643681C18944209D1084C183C246808
:1027C000A24209D052681A4442600A681268026044
:1027D000814200D0086030BD0460F9E78C00002021
:1027E00070B5002441600B4D0061914206D8D11AAA
:1027F0008269914206D2011D286907E09A4203D2FC
:10280000994201D3012403E0011DE86800F05EFA5B
:10281000204670BD5C00002010B5044600F07AFA36
:10282000A06B28B15FF0000400F094FA204610BDC0
:102830000124F9E730B589B03C4D6EE004980028DA
:1028400006DADDE90601059A90470498002864DB62
:10285000069C606910B1201D00F000FA03A800F08A
:10286000D7F8024604980A2857D2DFE800F0050599
:10287000052D334A05052D3394F8280040F001005A
:1028800084F828000599A069059B01442046FFF7BC
:10289000A7FF68B3216A2046884794F828004007BC
:1028A0003BD5002000900598A169002342181946E5
:1028B000204601F0AFF8D8B9502080F31188BFF35B
:1028C0004F8FBFF36F8FFEE714F8280F20F0010041
:1028D000207022E094F8280040F0010084F82800DD
:1028E0000598A06128B1811813462046FFF778FFAC
:1028F00013E0502080F31188BFF34F8FBFF36F8F29
:10290000FEE794F82800810703D4204600F036FA49
:1029100003E020F0010084F82800002204A92868C0
:1029200000F0C8FD002889D109B030BD5C0000204E
:102930002DE9FC410F46054600F070FB01A800F0B0
:1029400067F80446019818B100F0D2FFBDE8FC8199
:10295000254EAFB130690068D0B30027291B3A4635
:10296000306800F08DFA00F0C3FF0028EED11F4957
:102970004FF080500860BFF34F8FBFF36F8FE5E7D4
:10298000A542EBD800F0B4FFF0682746C068C468E1
:10299000201D00F063F994F82800410719D5A069BB
:1029A0002B4641193A462046FFF71AFFA8B10020EE
:1029B0000346014600902A46204601F02BF860B9F4
:1029C000502080F31188BFF34F8FBFF36F8FFEE766
:1029D00007E020F0010084F82800216A204688479B
:1029E000B4E70127BAE700005C00002004ED00E036
:1029F0000648416B096829B1416BC968C9684968D3
:102A0000816270474FF0FF31FAE70000200000209C
:102A100070B5054600F08AFE064E0446B068844252
:102A200003D200F009F8012000E0002028602046D1
:102A3000B46070BD5C000020F8B5194D20E0C0689E
:102A4000C4680668201D00F009F9216A20468847FD
:102A500094F82800400713D5A0693044B04206D945
:102A600024616060211DE86800F030F908E0002072
:102A70000346014600903246204600F0CBFF38B1B5
:102A8000E86801680029DAD12969C5E90310F8BDB1
:102A9000502080F31188BFF34F8FBFF36F8FFEE795
:102AA0005C00002008484068401C4FF0500080F354
:102AB000118804D0BFF34F8FBFF36F8FFEE7BFF3D2
:102AC0004F8FBFF36F8FFEE794000020074CE06844
:102AD000016841B1C0680021D0F80000FFF728FF6D
:102AE000FFF7A8FEF3E701210020F7E75C000020D4
:102AF0002DE9F041044600F00DF994F9455004F138
:102B0000240609E0606A48B1304600F0B9FE08B119
:102B100000F006FA6D1E6DB2002DF3DC4FF0FF36AB
:102B200084F8456000F016F900F0F4F894F9445088
:102B300004F1100709E0206948B1384600F0A0FE12
:102B400008B100F0EDF96D1E6DB2002DF3DC84F8D4
:102B50004460BDE8F04100F0FDB800002DE9F0410F
:102B60000546002700F05AFA324E306808B9FFF7E0
:102B700051FD706905424ED1C5B3083568070ED0C6
:102B800005F00700C0F108000544680707D0502091
:102B900080F31188BFF34F8FBFF36F8FFEE72DB324
:102BA0007068854237D82348183001460C6801E028
:102BB00020460C466168A94202D221680029F7D15B
:102BC00031688C4227D00768216801606068083747
:102BD000411B10290FD96019420708D0502080F3FB
:102BE0001188BFF34F8FBFF36F8FFEE713E0416093
:102BF0006560FFF7CFFD61687068401A7060B26869
:102C0000904200D2B060706901430020C4E9000125
:102C1000F068401CF06000F06BFE780707D0502091
:102C200080F31188BFF34F8FBFF36F8FFEE73846F5
:102C3000BDE8F0817400002010B5031F4FF08074D0
:102C40001C601B1F21F001011960191F024B0B6052
:102C5000143940380A6010BDA52A0008D0E90132B5
:102C600001699A60D0E901235A604A68824201D121
:102C700082684A60002202610868401E0860086895
:102C800070470000034B036003F15C000860802084
:102C90001060704758070020044B036003F15C008C
:102CA00008604FF48070106070470000B409002085
:102CB00000F108014FF0FF32C0E90112C16001616B
:102CC00000210160704700210161704730B50B6839
:102CD0005A1C02D000F1080202E0026904E0224618
:102CE000546825689D42FAD953684B6099608A60A0
:102CF000516008610168491C016030BD42684A604A
:102D000093688B6093685960916008610168491C01
:102D100001607047502080F31188BFF34F8FBFF3DD
:102D20006F8F0A494868401C486001280CD1084848
:102D3000006810F0FF0F07D0502080F31188BFF318
:102D40004F8FBFF36F8FFEE77047000094000020A5
:102D500004ED00E00849486828B1401E486001D1F0
:102D600080F311887047502080F31188BFF34F8F94
:102D7000BFF36F8FFEE700009400002070B50028BD
:102D80002AD0164DA0F1080460686969084207D18D
:102D9000502080F31188BFF34F8FBFF36F8FFEE792
:102DA00022683AB1502080F31188BFF34F8FBFF3F0
:102DB0006F8FFEE78843606000F030F960686968F3
:102DC000084468602046FFF7E5FC2869401C28613C
:102DD000BDE8704000F08CBD70BD000074000020A4
:102DE0004FF0E02000210161816105494FF47A72C2
:102DF0000968B1FBF2F1491E416107210161704789
:102E00001C00002010B5FDF713FA114910280ED34D
:102E100000F1E02090F8F0030A78904207D25020A9
:102E200080F31188BFF34F8FBFF36F8FFEE7094820
:102E30000068896800F4E060884207D9502080F378
:102E40001188BFF34F8FBFF36F8FFEE710BD0000F7
:102E5000940000200CED00E010B5084B002200BFEC
:102E600053F832401CB1521C082AF9D310BD43F864
:102E7000321003EBC201486010BD00003C0100208D
:102E800070B515460E460446FFF744FF94F944100A
:102E90000020491C01D184F8440094F94510491CD4
:102EA00001D184F84500FFF755FFA06B28B92A46E9
:102EB000314604F1240000F051F82046BDE870408E
:102EC000FFF716BE10B5020014D00F48006B38B1E2
:102ED000502080F31188BFF34F8FBFF36F8FFEE751
:102EE00000F09CF800211046FFF76EFA00F000FD9C
:102EF000002807D105494FF080500860BFF34F8F7D
:102F0000BFF36F8F10BD00002000002004ED00E033
:102F100002490A6A0260C9684160704720000020C7
:102F200001490120C86170472000002010B50C46FF
:102F300050B1094909681831FFF7C8FE2046BDE8BD
:102F400010400121FFF740BA502080F31188BFF3F1
:102F50004F8FBFF36F8FFEE72000002070B514463F
:102F60000D4668B10A4909681831FFF7C7FE0CB170
:102F70004FF0FF3521462846BDE87040FFF724BAE0
:102F8000502080F31188BFF34F8FBFF36F8FFEE7A0
:102F90002000002030B587B00024039405AA04A9BE
:102FA00003A80494FFF76EFEDDE903010094CDE968
:102FB0000110002315A11748059A00F07EFB164D5D
:102FC0000028E8621FD000F0F5FC012809D0401C61
:102FD00019D1502080F31188BFF34F8FBFF36F8F4B
:102FE000FEE7502080F31188BFF34F8FBFF36F8F40
:102FF0004FF0FF30A86201206861EC6007B0BDE8C7
:10300000304000F045B807B030BD000049444C45A1
:103010000000000061260008200000200248016B2B
:10302000491C01637047000020000020164810B5BD
:10303000016B11B10121C16110BD0021C1610169A4
:10304000124A01E0B9B1491E01EB810352F8233065
:10305000002BF7D001EB810302EB830202F108049D
:1030600053685B685360A34201D15B685360DA68C0
:103070000260016110BD502080F31188BFF34F8FB3
:10308000BFF36F8FFEE70000200000207C010020CE
:103090001CB5264908780190FF20087008788DF843
:1030A00000009DF800009DF8002000F0F000904224
:1030B00007D0502080F31188BFF34F8FBFF36F8F7D
:1030C000FEE79DF800001A4C00F050002070072029
:1030D000A06005E09DF8002052008DF80020401E01
:1030E0009DF800201206F5D4A060032807D05020D8
:1030F00080F31188BFF34F8FBFF36F8FFEE74FF45C
:103100004070A060019808700A48016841F470019D
:103110000160016841F070410160FFF761FE00202D
:103120006060FDF74FF800201CBD000000E400E0E7
:103130009400002020ED00E010B5502080F31188AD
:10314000BFF34F8FBFF36F8F00F0F6FA18B1044949
:103150004FF080500860002080F3118810BD0000FF
:1031600004ED00E0F8B517460E46050013D005FB48
:1031700006F05030FFF7F2FC04000AD0002084F87B
:10318000460004F150023B46314628460094FFF7C2
:1031900097FA2046F8BD502080F31188BFF34F8F77
:1031A000BFF36F8FFEE738B5049D18B153B1CAB1B4
:1031B00081B120E0502080F31188BFF34F8FBFF31F
:1031C0006F8FFEE7502080F31188BFF34F8FBFF35E
:1031D0006F8FFEE7502080F31188BFF34F8FBFF34E
:1031E0006F8FFEE739B1502080F31188BFF34F8F06
:1031F000BFF36F8FFEE750241C46012384F846304E
:103200002B460094FFF75CFA204638BD70B50D469A
:10321000040025D0FFF77EFDD4E90F20216802FBD2
:103220000011A1600021A163216861600A46D4E910
:103230000F01401E00FB0121E16021464FF0FF30ED
:1032400001F8440F487004F110008DB1FFF730FD14
:1032500004F12400FFF72CFDFFF77CFD012070BD79
:10326000502080F31188BFF34F8FBFF36F8FFEE7BD
:1032700021690029F0D000F003FB0028ECD00449BC
:103280004FF080500860BFF34F8FBFF36F8FE3E7BD
:1032900004ED00E02DE9FF4782B01D468A464FF05D
:1032A0000008040003D0BAF1000F08D011E050204C
:1032B00080F31188BFF34F8FBFF36F8FFEE7206C51
:1032C00038B1502080F31188BFF34F8FBFF36F8F59
:1032D000FEE7022D0AD1E06B012807D0502080F3D1
:1032E0001188BFF34F8FBFF36F8FFEE700F010FA26
:1032F0003F4F4FF000094FF0805648B9049838B15D
:10330000502080F31188BFF34F8FBFF36F8FFEE71C
:10331000FFF700FDA06BE16B884207D3022D05D0BB
:103320000498D0B1B8F1000F1AD01EE02A465146D9
:103330002046FFF71EF9616A19B104F1240000F07C
:103340009FFA20B13E60BFF34F8FBFF36F8FFFF73F
:1033500001FD012006B0BDE8F087FFF7FBFC22E08D
:103360006846FFF7D5FD4FF00108FFF7F3FCFFF7C4
:1033700055FEFFF7CFFC94F94400401C01D184F8BE
:10338000449094F94500401C01D184F84590FFF722
:10339000E1FC04A9684600F029F930B12046FFF7A6
:1033A000A7FB00F0A5FA0020D4E7FFF7B3FCA06B61
:1033B000E16B884213D1FFF7CDFC04F110000499B2
:1033C000FFF7B4FD2046FFF793FB00F091FA0028C9
:1033D0009ED13E60BFF34F8FBFF36F8F98E7FFF72B
:1033E000B9FC2046FFF784FB00F082FA90E700006A
:1033F00004ED00E02DE9F0471F46904689460400A1
:1034000003D0B9F1000F08D011E0502080F31188EB
:10341000BFF34F8FBFF36F8FFEE7206C38B15020A2
:1034200080F31188BFF34F8FBFF36F8FFEE7022F3A
:103430000AD1E06B012807D0502080F31188BFF338
:103440004F8FBFF36F8FFEE7FFF7DCFC5020EFF3E9
:10345000118680F31188BFF34F8FBFF36F8FA06B7E
:10346000E16B884206D3022F04D0002086F3118836
:10347000BDE8F08794F94550A06B3A46494620468E
:10348000FFF777F8681C04D06D1C84F845500120C4
:10349000ECE7606A0028FAD004F1240000F0F0F9AB
:1034A0000028F4D0B8F1000FF1D00121C8F80010C5
:1034B000EDE700002DE9F747002683B08A460400B7
:1034C00003D0BAF1000F08D011E0502080F311882A
:1034D000BFF34F8FBFF36F8FFEE7206C38B15020E2
:1034E00080F31188BFF34F8FBFF36F8FFEE700F0BB
:1034F0000FF9DFF8F4804FF000094FF0805748B91A
:10350000059838B1502080F31188BFF34F8FBFF377
:103510006F8FFEE7FFF7FEFBA56BC5B15146204656
:10352000FFF714F86D1EA563206950B104F1100077
:1035300000F0A6F928B1C8F80070BFF34F8FBFF3B1
:103540006F8FFFF707FC012006B0BDE8F0870598F4
:1035500008B11EB106E0FFF7FDFB27E06846FFF764
:10356000D7FC0126FFF7F6FBFFF758FDFFF7D2FB6C
:1035700094F94400401C01D184F8449094F945002A
:10358000401C01D184F84590FFF7E4FB05A968468B
:1035900000F02CF8002820460AD0FFF7A9FA00F026
:1035A000A7F92046FFF738F90028B3D00020CBE771
:1035B000FFF732F990B104F124000599FFF7B6FC4A
:1035C0002046FFF795FA00F093F90028A2D1C8F839
:1035D0000070BFF34F8FBFF36F8F9BE72046FFF75D
:1035E00087FA00F085F995E704ED00E02DE9F04158
:1035F0000C46050011D0C4B1FFF78CFB174BDA68FD
:103600006E682068911B471C17D02F681B6A9F4269
:1036100019D0964217D8012410E0502080F3118869
:10362000BFF34F8FBFF36F8FFEE7502080F31188F9
:10363000BFF34F8FBFF36F8FFEE70024FFF78AFBC6
:103640002046BDE8F081884205D9401A206028460E
:10365000FFF75EFCF1E700202060DCE7200000209F
:103660002DE9FF5F8346DDE90E87994616468A46B7
:103670009000FFF773FA05001CD05C20FFF76EFA8C
:10368000040014D00020256384F85900CDE90240DD
:10369000CDE900874B46324651465846FFF722F89F
:1036A0002046FEF7BFFE012004B0BDE8F09F28468B
:1036B000FFF764FB4FF0FF30F6E7F0B585B0DDE9CA
:1036C0000B640A9DA6B1DCB15C2700972663022635
:1036D00084F85960002604AFCDE90246CDE90057D1
:1036E000FFF700F82046FEF79DFE049805B0F0BDF8
:1036F000502080F31188BFF34F8FBFF36F8FFEE729
:10370000502080F31188BFF34F8FBFF36F8FFEE718
:103710000548416919B1006B18B1002070470120BC
:103720007047022070470000200000200148C06858
:1037300070470000200000202DE9F0412E4C0027AA
:10374000206B28B1A069401CA0613846BDE8F0811B
:10375000E668761CE66013D1606B006838B15020D3
:1037600080F31188BFF34F8FBFF36F8FFEE7606B5D
:10377000A16B6163A063206A401C2062FFF738F9E7
:10378000A06ADFF87880864209D3606B0068A0B138
:10379000606BC068C5686868864211D2A062206804
:1037A000C06A00EB800158F82100012800D90127E8
:1037B000E0690028C9D00127C7E74FF0FF30EDE7E7
:1037C000281DFFF74BFAA86A18B105F11800FFF79A
:1037D00045FAE86A2169884200D9206100EB80013E
:1037E00008EB8100291DFFF789FAE86A2168C96A98
:1037F0008842CAD30127C8E7200000207C010020AE
:1038000070B504004FF0000133D01B4D286884428E
:1038100007D0502080F31188BFF34F8FBFF36F8F15
:10382000FEE7206D38B1401E2065E36CE26A9A42E3
:103830001FD040B11DE0502080F31188BFF34F8F9F
:10384000BFF36F8FFEE7201DFFF708FAE06CE06220
:10385000C0F13800A061E06A2969884200D9286176
:10386000064900EB800001EB8000211DFFF746FABE
:103870000121084670BD0000200000207C010020CE
:1038800070B5C068C46854B104F118000646FFF76B
:10389000E5F9144D286B50B13146134815E050201E
:1038A00080F31188BFF34F8FBFF36F8FFEE7201DAA
:1038B000FFF7D4F9E06A2969884200D928610B49E9
:1038C00000EB800001EB8000211DFFF717FAE06A92
:1038D0002968C96A884202D90120E86170BD0020C8
:1038E00070BD000020000020040600207C010020A4
:1038F0002DE9F0472C4D00242746286B38B1FFF7FF
:1039000009FA286B401E2863286B40B146E050201E
:1039100080F31188BFF34F8FBFF36F8FFEE7A96865
:10392000224E0120D1B3A6F5916980463068E0B1FE
:10393000F068C46804F11800FFF790F9201DFFF744
:103940008DF9E06A2969884200D9286100EB80017D
:1039500009EB8100211DFFF7D1F9E06A2968C96AE6
:103960008842E3D3C5F81C80E0E70CB1FFF740F8CC
:10397000AC694CB14FEA0806FFF7DEFE00B1EE611C
:10398000641EF9D10020A861E86938B1084901270F
:1039900038070860BFF34F8FBFF36F8FFFF7DAF977
:1039A0003846BDE8F0870000200000200406002013
:1039B00004ED00E010B586B0FEF79CFD114C2068C8
:1039C000B8B100200390049005AA04A903A8FFF74A
:1039D00063F9DDE9032102208DE8070000230AA135
:1039E0000B48059AFFF769FE606010B106B0012030
:1039F00010BD502080F31188BFF34F8FBFF36F8F3E
:103A0000FEE700005C000020546D722053766300D6
:103A1000CD2A00082DE9FF411E46134602000A9DEB
:103A20004FF0000016D0144C2768002F0FD0CDE9BE
:103A300000130292062917DAFFF76AFE02284FF0F8
:103A400000030FD0002269462068FFF723FC04B072
:103A5000BDE8F081502080F31188BFF34F8FBFF392
:103A60006F8FFEE72A46EEE7002332466946384666
:103A7000FFF7C0FCEBE700005C000020643B00089F
:103A80000000000000000000000000000000000036
:103A9000000200001800000000000000000000000C
:103AA000703B000800000000000000000000000063
:103AB00000000000000200000800000000000000FC
:103AC00000000000583B000800000000000000005B
:103AD00000000000000000000000000001020203DE
:103AE0000405060708090A0B0C0D0E0F1010000044
:103AF000000000000000010203040607080900009E
:103B00000000010203043A7474003A7474003A74B9
:103B10007400000072685F696E743A2025642C207E
:103B200072685F6465633A2025642C2074656D704B
:103B30005F696E743A2025642C2074656D705F6433
:103B400065633A2025642C20636865636B73756D2B
:103B50003A2025640D0A0000646174615175657531
:103B60006530310044485431315461736B000000BA
:103B7000554152545461736B000000009C3B000897
:103B800000000020AC00000028010008483C0008AC
:103B9000AC000020C4200000440100080000000028
:103BA0000000000000000000000000000100000014
:103BB000100000000000000000127A000000000069
:103BC00000000000000000000000000000000000F5
:103BD00000000000000000000000000000000000E5
:103BE00000000000000000000000000000000000D5
:103BF00000000000000000000000000000000000C5
:103C000000000000000000000000000000000000B4
:103C100000000000000000000000000000000000A4
:103C20000000000000000000000000000000000094
:103C300000000000AAAAAAAA0000000000000000DC
:083C400000000000000000007C
:04000005080000ED02
:00000001FF
